:100000000C9435010C9466010C9466010C94660105
:100010000C9466010C9466010C9466010C946601C4
:100020000C9466010C9466010C9466010C946601B4
:100030000C9466010C9466010C9466010C946601A4
:100040000C9466010C9477060C9466010C9466017E
:100050000C9466010C9466010C9466010C94A30543
:100060000C9466010C946D050C9443050C94660188
:100070000C9466010C9466010C9466010C94660164
:100080000C9449060C9466010C9466010C9466016C
:100090000C9466010C9466010C9466010C94660144
:1000A0000C9466010C9466010C941B060C9466017A
:1000B0000C9466010C9466010C9466010C94ED0599
:1000C0000C9466010C9466010C9466010C94660114
:1000D0000C9466010C9466010C9466010C94660104
:1000E0000C9466010C9428030C9434020C940703BE
:1000F0000C94CB010C9481020C9425030C942103E5
:100100000C9402030C94DA010C943C030C9432031B
:100110000C9446030C94EE010C944E030C94FC01D9
:100120000C941D030C942E030C9438030C94400380
:100130000C9458030C949E010C9454030C941903D2
:100140000C944A030C94EA060000210024002700C6
:100150002A002D00300033000101000004010701D6
:100160000A0100002200250028002B002E0031008B
:10017000340002010000050108010B0100000A0B18
:1001800002090C0D0E080703040100000000000026
:10019000000000000000000000000000000000005F
:1001A000000000000000000012111000000000001C
:1001B000000000000000000000000000000000003F
:1001C0000000000020002300260029002C002F0042
:1001D00032000001000003010601090105050505C3
:1001E000070508080808020202020A0A08080404AF
:1001F00004040101010101010101030303030303DD
:100200000303040707070C0C0C0C0C0C0C0C02026B
:10021000020206060606060606060B0B0B0B0B0B68
:100220000B0B0102102020080810204010204080F5
:1002300002010201080402010102040810204080AA
:100240008040201008040201800402018040201038
:100250000804020108040201010204081020408081
:100260000102040810204080EA0611241FBECFEFCF
:10027000D1E2DEBFCDBF00E00CBF12E0A0E0B2E0F3
:10028000EAEBF5E100E00BBF02C007900D92A6314A
:10029000B107D9F723E0A6E1B2E001C01D92A8356D
:1002A000B207E1F711E0C5E3D1E000E006C0219715
:1002B0000109802FFE010E94BF0AC433D10780E0EC
:1002C0000807A9F70E9447070C94DB0A0C9400006A
:1002D000E0915503E03388F54091560328E830E07B
:1002E000241B310947FD3395220F331F220F331F83
:1002F0008217930784F04091570328E532E0241BCE
:10030000310947FD3395220F331F220F331F821708
:1003100093070CF49C0122503109220F331F4FB771
:10032000F8948E2F90E0FC01EE0FFF1FE80FF91FED
:10033000EC53FD4F328321834FBF0895AF92BF929C
:10034000CF92DF92EF92FF920F931F93CF93DF93A1
:100350006C017B018B01040F151FEB015E01AE18D0
:10036000BF08C017D10759F06991D601ED91FC91F2
:100370000190F081E02DC6011995892B79F7C5010F
:10038000DF91CF911F910F91FF90EF90DF90CF9071
:10039000BF90AF900895FC01538D448D252F30E020
:1003A000842F90E0821B930B541710F0CF96089582
:1003B00001970895FC01918D828D981761F0A28DAF
:1003C000AE0FBF2FB11D5D968C91928D9F5F9F7375
:1003D000928F90E008958FEF9FEF0895FC01918D2B
:1003E000828D981731F0828DE80FF11D858D90E098
:1003F00008958FEF9FEF0895FC01918D228D892F35
:1004000090E0805C9F4F821B91098F73992708951C
:1004100087E292E00E94FC0121E0892B09F420E0B0
:10042000822F0895FC01A48DA80FB92FB11DA35AE6
:10043000BF4F2C91848D90E001968F739927848F04
:10044000A689B7892C93A089B1898C918370806427
:100450008C93938D848D981306C00288F389E02DC8
:1004600080818F7D80830895EF92FF920F931F9379
:10047000CF93DF93EC0181E0888F9B8D8C8D981357
:100480001AC0E889F989808185FF15C09FB7F89463
:10049000EE89FF896083E889F989808183708064AF
:1004A00080839FBF81E090E0DF91CF911F910F91FA
:1004B000FF90EF900895F62E0B8D10E00F5F1F4F09
:1004C0000F731127E02E8C8D8E110CC00FB607FC18
:1004D000FACFE889F989808185FFF5CFCE010E94A6
:1004E0001202F1CFEB8DEC0FFD2FF11DE35AFF4F00
:1004F000F0829FB7F8940B8FEA89FB898081806234
:10050000CFCFCF93DF93EC01888D8823B9F0AA89F0
:10051000BB89E889F9898C9185FD03C0808186FDBE
:100520000DC00FB607FCF7CF8C9185FFF2CF80810D
:1005300085FFEDCFCE010E941202E9CFDF91CF916E
:10054000089580E090E0892B29F00E940802811133
:100550000E94000080E090E0892B49F080E090E06C
:10056000892B29F00E94000081110E94000080E088
:1005700090E0892B49F080E090E0892B29F00E94DF
:10058000000081110E94000080E090E0892B49F07A
:1005900080E090E0892B29F00E94000081110C94EA
:1005A00000000895282F30E0F901E458FE4F94919F
:1005B000F901EE5DFD4F449124523E4FF901249123
:1005C000222309F435C0992311F191509231F8F4A6
:1005D000E92FF0E08827E051FD4F8F4F0C94BF0AC0
:1005E00021032503020319031D03070328032E0318
:1005F000320338033C03400346034A0307034E0318
:1006000054035803809180008F7780938000E22FFD
:10061000F0E0EE0FFF1FEE59FE4FA591B4918FB79A
:10062000F894EC91611148C040954E234C938FBFD4
:100630000895809180008F7DE8CF80918000877F32
:10064000E4CF84B58F7784BDE2CF84B58F7DFBCFB7
:100650008091B0008F778093B000D9CF8091B000A7
:100660008F7DF9CF809190008F7780939000CFCFCE
:10067000809190008F7DF9CF80919000877FF5CF9A
:100680008091A0008F778093A000C1CF8091A000BF
:100690008F7DF9CF8091A000877FF5CF80912001D9
:1006A0008F7780932001B3CF809120018F7DF9CF88
:1006B00080912001877FF5CF4E2BB8CFCF93DF936A
:1006C00090E0FC01EE5DFD4F249184529E4FFC01B1
:1006D00084918823D1F090E0880F991FFC01E85B9A
:1006E000FE4FA591B491FC01EE59FE4FC591D491F6
:1006F00061110EC09FB7F8948C91E22FE0958E2384
:100700008C932881E223E8839FBFDF91CF910895E6
:100710008FB7F894EC91E22BEC938FBFF6CF863332
:1007200008F0865320917B00982F9870277F922B9A
:1007300090937B008770806480937C0080917A0026
:10074000806480937A0080917A0086FDFCCF80914E
:1007500078009091790008953FB7F89480911F0236
:1007600090912002A0912102B091220226B5A89B6F
:1007700005C02F3F19F00196A11DB11D3FBFBA2F33
:10078000A92F982F8827BC01CD01620F711D811DF3
:10079000911D42E0660F771F881F991F4A95D1F778
:1007A00008958F929F92AF92BF92CF92DF92EF9275
:1007B000FF926B017C010E94AC034B015C01C114F0
:1007C000D104E104F104B9F00E94AC03681979097D
:1007D0008A099B09683E73408105910580F321E0F9
:1007E000C21AD108E108F10888EE880E83E0981E4D
:1007F000A11CB11CE4CFFF90EF90DF90CF90BF9091
:10080000AF909F908F900895AF92BF92CF92DF925A
:10081000EF92FF920F931F93CF93DF936B017A01B7
:10082000EC01CA5EDD4F28813CE0389F8001399F92
:10083000100D1124A0905403B12C27FF1FC0FB0101
:100840001182108288818F5F888388819801280FA8
:10085000311D87FD3A95F6012A153B051CF4888168
:100860008C30C4F180819181049680349C4908F4D5
:1008700073C0F60180819181049670C088819801CF
:10088000280F311D87FD3A952A153B05DCF6888136
:10089000A801480F511D87FD5A95FA01EE0FFF1F61
:1008A000E40FF51FEC53FD4F808186FFCBCF88818D
:1008B000F801E80FF11D87FDFA95CF01EE0FFF1F3C
:1008C000E80FF91FEC53FD4F808160E08F730E94A9
:1008D000D202B8CF808191812881A801420F511D99
:1008E00027FD5A959A01FA01EE0FFF1FE20FF31F41
:1008F000EC53FD4F21813281820F931FF7019183C9
:10090000808388819801280F311D87FD3A95F90170
:10091000EE0FFF1FE20FF31FEC53FD4F808186FFA8
:1009200022C08881080F111D87FD1A95F801EE0F6E
:10093000FF1FE00FF11FEC53FD4F808161E08F73CB
:10094000DF91CF911F910F91FF90EF90DF90CF90AB
:10095000BF90AF900C94D20280E49CE9F7019183A0
:1009600080838FEF8883DF91CF911F910F91FF904C
:10097000EF90DF90CF90BF90AF9008958F929F92AD
:10098000AF92BF920F931F93CF93DF93CDB7DEB794
:10099000A1970FB6F894DEBF0FBECDBF19A24230AB
:1009A00008F44AE08E010F5D1F4F842E912CB12C6C
:1009B000A12CA50194010E944709E62FB901CA01A3
:1009C000EA3044F5E05DD801EE938D01232B242B12
:1009D000252B79F790E080E0109769F0FD010190F8
:1009E0000020E9F73197AF014A1B5B0BBD0187E29D
:1009F00092E00E949E01A1960FB6F894DEBF0FBE52
:100A0000CDBFDF91CF911F910F91BF90AF909F907D
:100A10008F900895E95CD7CFCF92DF92EF92FF924B
:100A2000CF93DF936C01092E000CEE08FF0897FFAF
:100A300023C06DE287E292E00E943402EC01662757
:100A40007727CB016C197D098E099F094AE00E9426
:100A5000BE04C80FD91F42E050E062E172E087E2B5
:100A600092E00E949E018C0F9D1FDF91CF91FF901D
:100A7000EF90DF90CF9008954AE0C701B6010E9441
:100A8000BE04EC01E8CF1F920F920FB60F92112413
:100A90000BB60F922F933F934F935F936F937F9378
:100AA0008F939F93AF93BF93EF93FF9387E292E06F
:100AB0000E941202FF91EF91BF91AF919F918F9190
:100AC0007F916F915F914F913F912F910F900BBE4E
:100AD0000F900FBE0F901F9018951F920F920FB698
:100AE0000F9211240BB60F922F938F939F93EF9336
:100AF000FF93E0913702F09138028081E0913D024E
:100B0000F0913E0282FD1DC09081809140028F5F76
:100B10008F7320914102821741F0E0914002F0E092
:100B2000E95DFD4F958F80934002FF91EF919F917A
:100B30008F912F910F900BBE0F900FBE0F901F90B3
:100B400018958081F2CF1F920F920FB60F92112449
:100B50002F933F938F939F93AF93BF9380911B02EB
:100B600090911C02A0911D02B0911E0230911A02B8
:100B700023E0230F2D3758F50196A11DB11D2093B9
:100B80001A0280931B0290931C02A0931D02B09343
:100B90001E0280911F0290912002A0912102B0912B
:100BA00022020196A11DB11D80931F029093200285
:100BB000A0932102B0932202BF91AF919F918F9198
:100BC0003F912F910F900FBE0F901F90189526E820
:100BD000230F0296A11DB11DD2CF1F920F920FB607
:100BE0000F9211240BB60F922F933F934F935F9365
:100BF0006F937F938F939F93AF93BF93EF93FF93E5
:100C000048E251E064E271E090E080E00E94040478
:100C1000FF91EF91BF91AF919F918F917F916F91D4
:100C20005F914F913F912F910F900BBE0F900FBE90
:100C30000F901F9018951F920F920FB60F921124CC
:100C40000BB60F922F933F934F935F936F937F93C6
:100C50008F939F93AF93BF93EF93FF9348EA50E036
:100C600064EA70E083E090E00E940404FF91EF9159
:100C7000BF91AF919F918F917F916F915F914F91B4
:100C80003F912F910F900BBE0F900FBE0F901F90B2
:100C900018951F920F920FB60F9211240BB60F9258
:100CA0002F933F934F935F936F937F938F939F9374
:100CB000AF93BF93EF93FF9348E950E064E970E08E
:100CC00082E090E00E940404FF91EF91BF91AF9108
:100CD0009F918F917F916F915F914F913F912F9154
:100CE0000F900BBE0F900FBE0F901F9018951F9284
:100CF0000F920FB60F9211240BB60F922F933F93C2
:100D00004F935F936F937F938F939F93AF93BF9313
:100D1000EF93FF9348E850E064E870E081E090E0F2
:100D20000E940404FF91EF91BF91AF919F918F9129
:100D30007F916F915F914F913F912F910F900BBEDB
:100D40000F900FBE0F901F901895CF92DF92EF92E9
:100D5000FF920F931F93E82FF92F05C0015011093F
:100D60002109310961F1908196239417B9F305C0E7
:100D7000015011092109310911F190819623941331
:100D8000F7CFC12CD12CE12CF12C0AC08FEFC81A5F
:100D9000D80AE80AF80A0C151D052E053F0579F05A
:100DA00080818623841791F36C2D7D2D8E2D9F2DB0
:100DB0001F910F91FF90EF90DF90CF90089560E02A
:100DC00070E080E090E01F910F91FF90EF90DF9036
:100DD000CF90089510922A021092290288EE93E093
:100DE000A0E0B0E080932B0290932C02A0932D0200
:100DF000B0932E0284E092E0909328028093270221
:100E000085EC90E0909334028093330284EC90E080
:100E1000909336028093350280EC90E090933802F4
:100E20008093370281EC90E090933A0280933902EC
:100E300082EC90E090933C0280933B0286EC90E041
:100E400090933E0280933D02109240021092410224
:100E5000109242021092430280915403803398F41E
:100E600091E0980F909354038093550390E0FC0118
:100E7000EE0FFF1FE80FF91FEC53FD4F88EB9BE0CF
:100E80009283818308958FEF80935503089578941A
:100E900084B5826084BD84B5816084BD85B582607F
:100EA00085BD85B5816085BD80916E008160809330
:100EB0006E00109281008091810082608093810099
:100EC00080918100816080938100809180008160A9
:100ED000809380008091B10084608093B100809104
:100EE000B00081608093B000809191008260809317
:100EF0009100809191008160809391008091900099
:100F00008160809390008091A10082608093A10015
:100F10008091A10081608093A1008091A0008160F8
:100F20008093A000809121018260809321018091B3
:100F30002101816080932101809120018160809353
:100F4000200180917A00846080937A0080917A00F9
:100F5000826080937A0080917A00816080937A0029
:100F600080917A00806880937A001092C10061E0DD
:100F700087E00E945E0361E086E00E945E03E091EC
:100F80003702F091380282E08083E0913302F091E1
:100F900034021082E0913502F09136028FEC8083AA
:100FA00010923F02E0913B02F0913C0286E0808388
:100FB000E0913902F0913A02808180618083E09172
:100FC0003902F0913A02808188608083E091390291
:100FD000F0913A02808180688083E0913902F0913B
:100FE0003A0280818F7D808380915503803308F0A1
:100FF00052C061E089E00E945E0380915503282F72
:1010000030E0F901EE0FFF1FE20FF31FEC53FD4F2D
:101010009081907C996090831092560310925703B0
:101020002CE0622F0E949F0A829FB001112430E0C1
:1010300020E0AB01420F531FFA01EE0FFF1FE40F38
:10104000F51FEC53FD4F908196FD17C02F5F3F4F6A
:101050002C30310571F7813009F0DAC01092800030
:1010600082E0809381001092850010928400B19AF2
:1010700080916F00826080936F00E09155038E2F06
:1010800090E0FC01EE0FFF1FE80FF91FEC53FD4F3E
:1010900080818064808361E08AE00E945E0360E07A
:1010A0008BE00E945E03C6E6D0E053E2E52EF12C11
:1010B0006DE2262E62E0362E77EEC72E71E0D72E37
:1010C000E8E8AE2EB12CF8E58F2EF2E09F2E86E3F5
:1010D0000E948F03BE010E94AB0ACB0170932602CF
:1010E000609325020E940C0561E087E00E94D20215
:1010F0004090250250902602052C000C66087708C7
:10110000C301B2010E94D10360E087E00E94D202D5
:10111000C301B2010E94D10387E30E948F03BE0185
:101120000E94AB0ACB0170932402609323020E94B9
:101130000C0561E086E00E94D202409023025090AC
:101140002402052C000C66087708C301B2010E9436
:10115000D10360E086E00E94D202C301B2010E9486
:10116000D10360E08AE00E94D20262E070E080E099
:1011700090E00E94D10361E08AE00E94D202C701A0
:101180000197F1F760E08AE00E94D202F1016491D8
:10119000F6018491E82FF0E0EE0FFF1FEE53FE4FB3
:1011A0008591949100E412E42FE030E0462F0E94F4
:1011B000A506611571058105910529F06F5F7F4FC7
:1011C0008F4F9F4F9F700E94110A2EEA37E44BE623
:1011D00052E40E9469090E94DB096E3171050CF02E
:1011E00043C0809157039401281B310987FD339533
:1011F000C901880F991F880F991F0E94680168EB29
:101200007BE080E090E00E94D1030E94A1025FCFCA
:10121000823061F4109290008093910010929500BA
:101220001092940088BB8093710027CF833069F4BB
:101230001092A00082E08093A1001092A50010926D
:10124000A40089BB8093720018CF811116CF109231
:10125000200182E080932101109225011092240147
:101260008ABB8093730009CF80915603F501E81B78
:10127000F10987FDF395CF01880F991F880F991FFA
:101280000E94680162E370E080E090E0BCCFA1E2E0
:101290001A2EAA1BBB1BFD010DC0AA1FBB1FEE1FF0
:1012A000FF1FA217B307E407F50720F0A21BB30B3B
:1012B000E40BF50B661F771F881F991F1A9469F7B7
:1012C00060957095809590959B01AC01BD01CF0113
:1012D00008950E947D090C94650A0E945E0A58F0E8
:1012E0000E94570A40F029F45F3F29F00C944E0AFF
:1012F00051110C94990A0C94540A0E94760A68F3CE
:101300009923B1F3552391F3951B550BBB27AA27BE
:1013100062177307840738F09F5F5F4F220F331FF8
:10132000441FAA1FA9F335D00E2E3AF0E0E832D0C0
:1013300091505040E695001CCAF72BD0FE2F29D0C3
:10134000660F771F881FBB1F261737074807AB0795
:10135000B0E809F0BB0B802DBF01FF2793585F4F0A
:101360003AF09E3F510578F00C944E0A0C94990A7D
:101370005F3FE4F3983ED4F3869577956795B795EC
:10138000F7959F5FC9F7880F911D9695879597F9F7
:101390000895E1E0660F771F881FBB1F6217730770
:1013A0008407BA0720F0621B730B840BBA0BEE1F85
:1013B00088F7E09508950E94E2096894B1110C94B1
:1013C000990A08950E947E0A88F09F5798F0B92FD5
:1013D0009927B751B0F0E1F0660F771F881F991F6A
:1013E0001AF0BA95C9F714C0B13091F00E94980A6A
:1013F000B1E008950C94980A672F782F8827B85F7A
:1014000039F0B93FCCF3869577956795B395D9F7C1
:101410003EF490958095709561957F4F8F4F9F4FCB
:101420000895E89409C097FB3EF4909580957095D7
:1014300061957F4F8F4F9F4F9923A9F0F92F96E920
:10144000BB279395F695879577956795B795F11195
:10145000F8CFFAF4BB0F11F460FF1BC06F5F7F4F32
:101460008F4F9F4F16C0882311F096E911C0772344
:1014700021F09EE8872F762F05C0662371F096E84D
:10148000862F70E060E02AF09A95660F771F881F1C
:10149000DAF7880F9695879597F9089597F99F67DA
:1014A00080E870E060E008959FEF80EC08950024EC
:1014B0000A941616170618060906089500240A94B9
:1014C00012161306140605060895092E0394000C3F
:1014D00011F4882352F0BB0F40F4BF2B11F460FFCE
:1014E00004C06F5F7F4F8F4F9F4F089557FD9058F7
:1014F000440F551F59F05F3F71F04795880F97FBD8
:10150000991F61F09F3F79F0879508951216130691
:101510001406551FF2CF4695F1DF08C016161706C0
:101520001806991FF1CF86957105610508940895F5
:10153000E894BB2766277727CB0197F90895991B75
:1015400079E004C0991F961708F0961B881F7A95BA
:10155000C9F78095089597FB072E16F4009407D0DD
:1015600077FD09D00E94C70A07FC05D03EF490958C
:1015700081959F4F0895709561957F4F0895EE0F67
:10158000FF1F881F8BBF0790F691E02D1994AA1BAF
:10159000BB1B51E107C0AA1FBB1FA617B70710F05E
:1015A000A61BB70B881F991F5A95A9F78095909590
:0A15B000BC01CD010895F894FFCFAF
:1015BA000000000034029E01CB018102FC01DA0125
:0615CA00EE010D0A000015
:00000001FF
